S014000073656C665F645F74657374322E7372656352
S113000013C2000031C200002FC200002DC2000044
S11300102BC2000029C2000027C2000025C2000034
S113002023C2000021C200001FC200001DC2000044
S11300301BC2000019C2000017C2000015C2000054
S113004013C2000011C200000FC200000DC2000064
S11300500BC2000009C2000007C200000C94791210
S113006003C200000C946915FFC10000FDC100002B
S1130070FBC10000F9C10000F7C10000F5C1000098
S1130080F3C10000F1C10000EFC10000EDC10000A8
S1130090EBC10000E9C10000E7C100000C943C146E
S11300A0E3C10000E1C10000DFC10000DDC10000C8
S11300B0DBC10000D9C10000D7C10000D5C10000D8
S11300C0D3C10000D1C10000CFC10000CEC10000E7
S11300D0CBC10000C9C10000C7C10000C5C10000F8
S11300E0C3C1000044154715471547154715471563
S11300F0471547155E144715471547154715471506
S1130100471547155E1447154715471547154715F5
S113011047154715661447154715471547154715DD
S1130120471547158B1447154715471547154715A8
S113013047154715661447154715471547154715BD
S11301404715471590144715471547154715471583
S1130150471547159514471547154715471547156E
S113016047154715A614471547154715471547154D
S113017047154715CF144715471547154715471514
S1130180471547159A144715471547154715471539
S113019047154715B414471547154715471547150F
S11301A047154715D11447154715471547154715E2
S11301B047154715D11447154715471547154715D2
S11301C047154715D11447154715471547154715C2
S11301D047154715D11447154715471547154715B2
S11301E047154715DA144715471547154715471599
S11301F0471547150B154715471547154715471557
S113020047154715DA144715471547154715471578
S1130210471547150B154715471547154715471536
S113022047154715F2144715471547154715471540
S1130230471547150F154715471547154715471512
S1130240471547150F154715471547154715471502
S113025047154715241547154715471547154715DD
S1130260471547153E1547154715471547154715B3
S1130270471547153E15084AD73B3BCE016E84BC53
S1130280BFFDC12F3D6C74319ABD56833DDA3D00EC
S1130290C77F11BED9E4BB4C3E916BAAAABE000035
S11302A000803F07634236B79BD8A71A39685618AF
S11302B0AEBAAB558C1D3CB7CC5763BD6DEDFD7527
S11302C03EF6177231BF000000803F08000000BEF8
S11302D0922449123EABAAAA2ABECDCCCC4C3E00F5
S11302E0000080BEABAAAAAA3E00000000BF000026
S11302F000803F0000000000084178D3BB4387D151
S1130300133D190E3CC3BD4282AD2B3E68EC827690
S1130310BED98FE1A93E4C80EFFFBE01C4FF7F3FF1
S11303200000000000006E616E00696E660000400F
S11303307A10F35A00A0724E18090010A5D4E800F0
S113034000E87648170000E40B54020000CA9A3B08
S1130350000000E1F505000080969800000040428E
S11303600F000000A086010000001027000000001C
S1130370E803000000006400000000000A00000020
S113038000000100000000002C76D888DC674F08CC
S113039023DFC1DFAE59E1B1B796E5E3E453C63AD2
S11303A0E651997696E8E6C28426EB898C9B62ED49
S11303B0407C6FFCEFBC9C9F40F2BAA56FA5F49003
S11303C0055A2AF75C936B6CF9676DC11BFCE0E47A
S11303D00D47FEF520E6B500D0ED902E03009435D0
S11303E077050080841E080000204E0A000000C823
S11303F00C333333330F986E12831141EF8D211474
S1130400893BE65516CFFEE6DB18D1844B381BF743
S11304107C1D901DA4BBE424203284725E228100E2
S1130420C9F124ECA1E53D2711241FBECFEFD1E291
S1130430DEBFCDBF00E00CBF19E0A0E0B2E0E4E60F
S1130440F5E400E00BBF02C007900D92AE32B10795
S1130450D9F72DE0AEE2B9E001C01D92A83DB20784
S1130460E1F7F8D00C94B022CBCD1F920F920FB6C7
S11304700F9211240BB60F922F933F938F939F9358
S1130480EF93FF93E0912F0981E08E0F80932F0962
S11304909091D600F0E0ED50F64F9083282F30E095
S11304A0F901EE50F64F90819A3051F4F901ED5074
S11304B0F64F108210922F0981E080932E0904C018
S11304C08E3F10F010922F09FF91EF919F918F9121
S11304D03F912F910F900BBE0F900FBE0F901F9066
S11304E01895DC01CB01880F991FAA1FBB1F880F29
S11304F0991FAA1FBB1F9C01AD01220F331F441F6C
S1130500551F60E074E284EF90E00E943320215094
S113051031093093D5002093D40082E08093D00039
S113052080E98093D10086E08093D2000895809181
S11305302E09882321F010922E0981E0089580E08D
S113054008959FEB980F963018F490E0C79708959C
S11305509FE9980F963020F490E08755910908950B
S113056090ED980F9A3018F490E0C097089580E0C9
S113057090E00895EF92FF920F931F93CF93DF9330
S1130580EC01D5DF882309F455C08091F309843246
S113059009F052C08091F609823509F04FC080916C
S11305A0F7098D3409F04CC08091F809833409F0BF
S11305B049C08091F4098A3279F001E0F12C01C03C
S11305C0092FF82691E0900FE92FF0E0ED50F64F57
S11305D080818A32A9F702C000E0F12C10E00D50AE
S11305E0164FF8018281ADDFE82EF8018381A9DF7F
S11305F02F2D30E090E0F0E1EF9E800D911D11244D
S11306002817390731F08CE194E00E9412228EEF12
S11306101AC08091050A813431F08DE294E00E9481
S113062012228EEF10C063EF79E0CE010E947F2189
S113063081E009C08FEF07C08FEF05C08FEF03C0C3
S11306408FEF01C08FEFDF91CF911F910F91FF903A
S1130650EF900895CF93DF93CDB7DEB7CF5FD10985
S11306600FB6F894DEBF0FBECDBF80E884B978948E
S113067060E472E48FE090E00E94A51560E875E202
S113068080E090E02EDF60E071EE80E090E00E9478
S113069077170E9400130E9468130E945A1061E0A9
S11306A08EEF0E9446186AE388E666D780FF59C138
S11306B080EF90E00E940913019709F052C182EF84
S11306C09AE015D39AD2C0902A0BD0902B0BE090CD
S11306D02C0BF0902D0B02EF1AE0F8016081718170
S11306E0072E000C880B990B0E94E119A7019601B3
S11306F00E94BD1A6093260B7093270B8093280BDE
S11307009093290BF80162817381072E000C880BEA
S1130710990B0E94E119A70196010E94BD1A6093EA
S11307204A0B70934B0B80934C0B90934D0BF80139
S113073064817581072E000C880B990B0E94E119C6
S1130740A70196010E94BD1A6093140B7093150BB8
S11307508093160B9093170B8CE19BE0FCD20FD285
S1130760C090340BD090350BE090360BF090370BE3
S11307700CE11BE0F80160817181072E000C880BED
S1130780990B0E94E119A70196010E94BD1A60937A
S1130790460B7093470B8093480B9093490BF801D9
S11307A062817381072E000C880B990B0E94E1195A
S11307B0A70196010E94BD1A6093100B7093110B50
S11307C08093120B9093130BF80164817581072EAB
S11307D0000C880B990B0E94E119A70196010E9455
S11307E0BD1A6093300B7093310B8093320B90934E
S11307F0330B8CE39BE033D7A1D1C090420BD09054
S1130800430BE090440BF090450B0CE31BE0F80124
S113081060817181072E000C880B990B0E94E119ED
S1130820A70196010E94BD1AE8E4F9E02081318114
S1130830428153810E94BD1AECE3F9E020813181A9
S1130840428153810E947B182B013C0160934E0B23
S113085070934F0B8093500B9093510BF80162816E
S11308607381072E000C880B990B0E94E119A701D4
S113087096010E94BD1A20914C0930914D09409176
S11308804E0950914F090E94BD1A209140093091A0
S1130890410940914209509143090E947B184B0140
S11308A05C016093220B7093230B8093240B909331
S11308B0250BF80164817581072E000C880B990BB8
S11308C00E94E119A70196010E94BD1A20915009C6
S11308D03091510940915209509153090E94BD1A17
S11308E020914409309145094091460950914709A6
S11308F00E947B186093380B7093390B80933A0BEA
S113090090933B0BA3019201C501B4010E94EF181F
S113091020E030E044E353E40E94BD1A28ED3FE0B8
S113092049E450E40E94461920E030E044EB52E4EC
S11309300E947C186B017C0120E030E0A9010E9438
S11309404219882354F420E030E044EB53E4C70117
S1130950B6010E947C186B017C01C701B6010E949C
S11309605C16CE01019606DE813051F484EF91E0ED
S11309700E940913019721F4CE0101960E94D71514
S1130980CE0101960E940D17813059F0823009F092
S11309908ACE1C811C3241F5C12CD12C760100E099
S11309A062C04C812D8130E0C901880F991F220F4C
S11309B0331F220F331F220F331F820F931FF4E6BE
S11309C0F49F800D911D11242E81820F911D9F9300
S11309D08F9380E494E09F938F930E94FA210F9069
S11309E00F900F900F905FCE63E070E003E0C12C96
S11309F0D12C760101C0082F63507109072E000C19
S1130A00880B990B0E94E1199B01AC0160E070E036
S1130A1080E291E40E94201B0E946C1B4B015C014C
S1130A20612F70E060537109072E000C880B990B3D
S1130A300E94E119A50194010E94BD1A9B01AC0119
S1130A40C701B6010E947C186B017C0181E0800F14
S1130A50682F70E0E1E0F0E0EC0FFD1FE60FF71FF8
S1130A6010811C3241F66894222421F8200E622D54
S1130A7070E0E1E0F0E0EC0FFD1FE60FF71F3080BF
S1130A80FAE23F16F1F1812C912C540110E00E5F33
S1130A901F4F601B710B072E000C880B990B0E94D3
S1130AA0E1199B01AC0160E070E080E291E40E94F6
S1130AB0201B0E946C1B2B013C01632D70E06053D2
S1130AC07109072E000C880B990B0E94E119A301F0
S1130AD092010E94BD1A9B01AC01C501B4010E94A0
S1130AE07C184B015C012394622D70E0E1E0F0E09E
S1130AF0EC0FFD1FE60FF71F30802AE23212C9CF38
S1130B0003C0812C912C5401C501B4010E94AE197B
S1130B1074504B01770FAA08BB08C701B6010E94A5
S1130B20AE199B013450032E000C440B550B850168
S1130B30740162E081E00E945D18B5CD80910102EC
S1130B40882319F0813071F008958FEF9BEEAFEB9D
S1130B50B0E48093420B9093430BA093440BB09367
S1130B60450B08958FEF9BEEAFEBBFE38093420BF1
S1130B709093430BA093440BB093450B089580913D
S1130B806D09813099F028F08230E9F0833041F129
S1130B90089580E090E0AAEFBBE38093340B909338
S1130BA0350BA093360BB093370B089580E090E09B
S1130BB0AAE7BCE38093340B9093350BA093360BD8
S1130BC0B093370B089580E090E0AAEFBCE38093E4
S1130BD0340B9093350BA093360BB093370B0895D9
S1130BE080E090E0AAE7BDE38093340B9093350B4B
S1130BF0A093360BB093370B089580916C09813024
S1130C0099F028F08230E9F0833041F1089580E0D2
S1130C1090E0A0E8B8E380932A0B90932B0BA09369
S1130C202C0BB0932D0B089580E090E0A0E0B9E385
S1130C3080932A0B90932B0BA0932C0BB0932D0B2A
S1130C40089580E090E0A0E8B9E380932A0B9093A4
S1130C502B0BA0932C0BB0932D0B089580E090E008
S1130C60A0E0BAE380932A0B90932B0BA0932C0B58
S1130C70B0932D0B08950F93CF93DF931F921F9280
S1130C80CDB7DEB769834A8301E021E042E0BE01CB
S1130C906F5F7F4F0E94CC130F900F90DF91CF9125
S1130CA00F910895DF92EF92FF920F931F93CF93CA
S1130CB0DF931F92CDB7DEB7182F6983D42E790145
S1130CC000E021E041E0BE016F5F7F4F0E94CC1342
S1130CD021E04D2DB701812F0E947E130F90DF91EB
S1130CE0CF911F910F91FF90EF90DF9008950F9394
S1130CF01F93CF93DF9300D000D0CDB7DEB78C0124
S1130D009E012F5F3F4F46E06BE388E6CBDF89818E
S1130D1090E0982F88272A81822BF8019183808381
S1130D208B8190E0982F88272C81822B9383828358
S1130D308D8190E0982F88272E81822B9583848340
S1130D4026960FB6F894DEBF0FBECDBFDF91CF91CC
S1130D501F910F9108950F931F93CF93DF9300D0AA
S1130D6000D0CDB7DEB78C019E012F5F3F4F46E028
S1130D7063E488E697DF898190E0982F88272A81A9
S1130D80822BF801918380838B8190E0982F8827B0
S1130D902C81822B938382838D8190E0982F8827E6
S1130DA02E81822B9583848326960FB6F894DEBF1A
S1130DB00FBECDBFDF91CF911F910F9108950F9377
S1130DC01F93CF93DF9300D0CDB7DEB78C0140E003
S1130DD06AE08CE050DF83EC99E00197F1F700C002
S1130DE000004FE06AE08CE046DFE3ECF9E0319785
S1130DF0F1F700C000009E012F5F3F4F43E060E128
S1130E008CE050DF698170E060587109072E000C96
S1130E10880B990B0E94E11920E030E040E85BE385
S1130E200E94BD1A20E030E040E85FE30E947C1895
S1130E30F80160837183828393836A8170E06058D0
S1130E407109072E000C880B990B0E94E11920E010
S1130E5030E040E85BE30E94BD1A20E030E040E867
S1130E605FE30E947C18F80164837583868397830B
S1130E706B8170E060587109072E000C880B990B88
S1130E800E94E11920E030E040E85BE30E94BD1AD3
S1130E9020E030E040E85FE30E947C18F8016087BE
S1130EA071878287938740E06AE08CE0E4DE83EC1C
S1130EB099E00197F1F700C0000080910102E0E1A0
S1130EC08E9FC001112440910002482B6AE08CE0FF
S1130ED0D2DE83EC99E00197F1F700C000000F9097
S1130EE00F900F90DF91CF911F910F9108952F9242
S1130EF03F924F925F926F927F928F929F92AF92A6
S1130F00BF92CF92DF92EF92FF920F931F93CF93F2
S1130F10DF93CDB7DEB7EF970FB6F894DEBF0FBE01
S1130F20CDBF9DAB8CAB7FAB6EAB40E86BE688E688
S1130F30A2DE87EA91E60197F1F700C0000041E0E4
S1130F406BE688E698DE40E06CE688E694DEAFE483
S1130F50B3EC1197F1F700C0000040E068E388E6C5
S1130F608ADE40E063E288E686DE40E06BE688E6FF
S1130F7082DE40E064E288E67EDE40E06AE688E6FF
S1130F807ADE4CE06AE688E676DEE5EAFEE0319752
S1130F90F1F700C0000041E06AE188E66CDE40E061
S1130FA069E188E668DE40E06BE188E664DE40E003
S1130FB06CE188E660DE40E46AE688E65CDE48E7E9
S1130FC063E288E658DE8FE097E20197F1F700C00C
S1130FD0000040E063E288E64EDE9E012F5F3F4F53
S1130FE042E062E788E65EDE298130E0322F222784
S1130FF08A81282BABEABAEA0E9479201C01369434
S1131000279436942794369427942114310409F4B0
S113101091C01C8E1D8E1E8E1F8E18A219A21AA29C
S11310201BA21CA21DA21EA21FA2412C512C3201E4
S1131030812C912C5401C12CD12C760100E010E0BC
S11310409E012F5F3F4F4CE064E788E62BDE8981E9
S113105090E0982F88272A81822B092E000CAA0B56
S1131060BB0B480E591E6A1E7B1E8B8190E0982F85
S113107088272C81822B092E000CAA0BBB0B880E0F
S1131080991EAA1EBB1E8D8190E0982F88272E8161
S1131090822B092E000CAA0BBB0BC80ED91EEA1E0C
S11310A0FB1E8F8190E0982F88272885822B092E9C
S11310B0000CAA0BBB0B2C8D3D8D4E8D5F8D280F24
S11310C0391F4A1F5B1F2C8F3D8F4E8F5F8F898581
S11310D090E0982F88272A85822B092E000CAA0BD2
S11310E0BB0B28A139A14AA15BA1280F391F4A1FB4
S11310F05B1F28A339A34AA35BA38B8590E0982F99
S113110088272C85822B092E000CAA0BBB0B2CA143
S11311103DA14EA15FA1280F391F4A1F5B1F2CA3BD
S11311203DA34EA35FA30F5F1F4F2016310609F0A6
S113113087CF15C01C8E1D8E1E8E1F8E18A219A25D
S11311401AA21BA21CA21DA21EA21FA2412C512C3A
S11311503201812C912C5401C12CD12C76018101B6
S113116020E030E008A719A72AA73BA7C301B201D2
S1131170A90198010E9455202CA73DA74EA75FA75F
S113118028AF39AF4AAF5BAFC501B40128A539A573
S11311904AA55BA50E94552028AB39AB4AAB5BAB93
S11311A02CAF3DAF4EAF5FAFC701B60128A539A53F
S11311B04AA55BA50E94552069017A016C8D7D8D3D
S11311C08E8D9F8D28A539A54AA55BA50E94552023
S11311D049015A0168A179A18AA19BA128A539A531
S11311E04AA55BA50E94552029013A016CA17DA165
S11311F08EA19FA128A539A54AA55BA50E945520CB
S11312002C8F3D8F4E8F5F8F1C141D041E041F04F2
S11312102CF410E4D11AE108F10804C020E4D20E41
S1131220E11CF11C88279927DC0188199909AA096E
S1131230BB091AF40396A11DB11DB595A795979501
S11312408795B595A79597958795492F5A2F6B2F15
S1131250772767FD7A9549838A8388279927DC0154
S113126084199509A609B7091AF40396A11DB11D9D
S1131270B595A79597958795B595A79597958795CE
S11312809B838C838C8D9D8DAE8DBF8DB095A095E9
S1131290909581959F4FAF4FBF4F1AF40396A11DB0
S11312A0B11DB595A79597958795B595A7959795EC
S11312B087959D838E8363E188E6DDDC4A8164E162
S11312C088E6D9DC4B8165E188E6D5DC4C8166E1B2
S11312D088E6D1DC4D8167E188E6CDDC4E8168E1AA
S11312E088E6C9DCC501B4010E94E11920E030E0C0
S11312F043E053E40E944619ACA9BDA96D937D93C4
S11313008D939C931397C301B2010E94E11920E0CD
S113131030E043E053E40E944619ECA9FDA964833C
S11313207583868397836C8D7D8D8E8D9F8D0E94B2
S1131330E11920E030E043E053E40E944619ACA9EF
S1131340BDA918966D937D938D939C931B979E01D5
S11313502F5F3F4F42E067E788E6A4DC4980512CC9
S1131360542C44248A81482A052C000C66087708EA
S11313704D865E866F86788A9E012F5F3F4F42E0DE
S11313806AE788E68FDC8980912C982C88248A81EE
S1131390882A092C000CAA08BB08898A9A8AAB8A75
S11313A0BC8A9E012F5F3F4F42E06DE788E67ADCFE
S11313B0498150E0542F44278A81482B052E000C84
S11313C0660B770B4D8B5E8B6F8B788F198E1A8E15
S11313D01B8EFE013D96DE015996CD0133243394D4
S11313E0019111912191319100FD3C921196E817E0
S11313F0F907B1F78CA59DA5AEA5BFA508AD19AD9C
S11314002AAD3BAD33231CF40796A11DB11D68948E
S113141012F8B595A795979587951694D1F7481A1C
S1131420590A6A0A7B0A88A999A9AAA9BBA90CAD79
S11314301DAD2EAD3FAD33231CF40796A11DB11D88
S1131440689412F8B595A795979587951694D1F752
S1131450881A990AAA0ABB0AD701C601FF201CF4FC
S11314600796A11DB11D689412F8B595A795979597
S113147087951694D1F78A019B01081B190B2A0B37
S11314803B0BD901C801772777FC7A95672D562D38
S1131490452D4983298D422A4A829B822A8D822A9C
S11314A08C829D832B8D822B8E8367E788E6E3DB1A
S11314B04A8168E788E6DFDB4B816AE788E6DBDBA5
S11314C04C816BE788E6D7DB4D816DE788E6D3DB9B
S11314D04E816EE788E6CFDB6CA57DA58EA59FA522
S11314E00E94E11920E030E040E858E30E94BD1A70
S11314F0AEA9BFA96D937D938D939C93139768A90F
S113150079A98AA99BA90E94E11920E030E040E86A
S113151058E30E94BD1AEEA9FFA9648375838683EC
S11315209783C701B6010E94E11920E030E040E84A
S113153058E30E94BD1AAEA9BFA918966D937D9376
S11315408D939C931B97EF960FB6F894DEBF0FBE56
S1131550CDBFDF91CF911F910F91FF90EF90DF905E
S1131560CF90BF90AF909F908F907F906F905F903F
S11315704F903F902F900895CF93DF931F92CDB754
S1131580DEB79E012F5F3F4F41E08CDB89810F90D6
S1131590DF91CF910895CF9340E06BE688E66BDB53
S11315A087EA91E60197F1F700C0000041E06BE69D
S11315B088E661DB8FE493EC0197F1F700C000004B
S11315C043E06AE188E657DB44E069E188E653DBFF
S11315D06BE188E6D1DFC82F482F4D7F6BE188E6A9
S11315E04ADB4C2F477E6BE188E645DB40916D0971
S11315F0440F440F440F4C2B6BE188E63CDB6CE159
S113160088E6BADFC82F482F477E6CE188E633DBD3
S113161040916C09440F440F440F4C2B6CE188E655
S11316202ADB6DE188E6A8DFC82F482F407F6DE1F3
S113163088E621DB4C2F43606DE188E61CDB42E247
S113164067E388E618DB41E068E388E614DB87EAB1
S113165091E60197F1F700C00000CF9108950F9330
S11316601F93CF93DF93CDB7DEB727970FB6F894C8
S1131670DEBF0FBECDBF8C0162E08CE07DDF80FF5A
S1131680FBCF9E012F5F3F4F47E063E08CE00ADB16
S11316908F8183FD19C08A8190E0982F8827298142
S11316A0822BF801918380838C8190E0982F882786
S11316B02B81822B938382838E8190E0982F8827BD
S11316C02D81822B9583848327960FB6F894DEBFF1
S11316D00FBECDBFDF91CF911F910F9108952F922F
S11316E03F924F925F926F927F928F929F92AF92AE
S11316F0BF92CF92DF92EF92FF920F931F93CF93FB
S1131700DF93CDB7DEB7C054D1090FB6F894DEBF6E
S11317100FBECDBF782E692EFE01319686E0DF0123
S11317201D928A95E9F740E069E188E6A4DA42E08F
S11317306AE188E6A0DA41E06BE188E69CDA42E0FF
S11317406DE188E698DA41E06CE188E694DA08EC29
S113175010E09E012F5F3F4F46E06BE388E6A2DA7C
S1131760898190E0982F88272A81822B2B893C89B4
S1131770820F931F9C8B8B8B8B8190E0982F8827F3
S11317802C81822B2D893E89820F931F9E8B8D8BFA
S11317908D8190E0982F88272E81822B2F89388D78
S11317A0820F931F988F8F8B9E012F5F3F4F46E0D0
S11317B063E488E677DA898190E0982F88272A8184
S11317C0822B2D853E85820F931F9E878D878B816B
S11317D090E0982F88272C81822B2F853889820FBF
S11317E0931F988B8F878D8190E0982F88272E8167
S11317F0822B29893A89820F931F9A8B898B0150F6
S1131800110909F0A6CF6E01B3E1CB0ED11C4E0134
S1131810EDE08E0E911C7E01F9E1EF0EF11C9401B6
S1131820F60108EC10E080819181B8010E9420202B
S113183061937193D9018D919C91B8010E942020EC
S1131840D9016D937D939D01EE15FF0561F740EE7F
S11318506CE188E610DA40EE6BE188E60CDAE9E642
S1131860F8E13197F1F700C0000008EC10E09E01A8
S11318702F5F3F4F46E06BE388E614DA898190E0FE
S1131880982F88272A81822B298D3A8D820F931FC6
S11318909A8F898F8B8190E0982F88272C81822BB7
S11318A02B8D3C8D820F931F9C8F8B8F8D8190E0AD
S11318B0982F88272E81822B2D8D3E8D820F931F8A
S11318C09E8F8D8F9E012F5F3F4F46E063E488E635
S11318D0E9D9898190E0982F88272A81822B2F8D3E
S11318E038A1820F931F98A38F8F8B8190E0982F3C
S11318F088272C81822B29A13AA1820F931F9AA3B6
S113190089A38D8190E0982F88272E81822B2BA18B
S11319103CA1820F931F9CA38BA30150110909F0D2
S1131920A6CF5E01F9E1AF0EB11C1E018FE1280EB6
S1131930311C71019101F50108EC10E08081918165
S1131940B8010E94202061937193D9018D919C91DB
S1131950B8010E942020D9016D937D939D01EE155D
S1131960FF0561F740E06CE188E685D940E06BE172
S113197088E681D9E9E6F8E13197F1F700C0000083
S11319809E01295F3F4F41E06DE088E68BD99E01BF
S1131990285F3F4F41E06EE088E684D96FE088E637
S11319A0EBDD898760E088E6E7DD8A8761E088E629
S11319B0E3DD8B8762E088E6DFDD182F6F8170E05E
S11319C080E090E00E94DF1920E030E040E85FE32F
S11319D00E947B189B01AC016EEA77E481E89FE3E7
S11319E00E94201B20E030EC43E255E40E94BD1A23
S11319F06DA37EA38FA398A7688570E080E090E034
S1131A000E94DF1920E030E040E85FE30E947B1889
S1131A109B01AC016EEA77E481E89FE30E94201BFE
S1131A2020E030EC43E255E40E94BD1A69A77AA78E
S1131A308BA79CA7698570E080E090E00E94DF1985
S1131A4020E030E040E85FE30E947B189B01AC019A
S1131A506EEA77E481E89FE30E94201B20E030ECEB
S1131A6043E255E40E94BD1A6DA77EA78FA798ABE9
S1131A706A8570E080E090E00E94DF1920E030E0A9
S1131A8040E85FE30E947B189B01AC016EEA77E4B7
S1131A9081E89FE30E94201B20E030EC43E255E400
S1131AA00E94BD1A69AB7AAB8BAB9CAB6B8570E0C3
S1131AB080E090E00E94DF1920E030E040E85FE33E
S1131AC00E947B189B01AC016EEA77E481E89FE3F6
S1131AD00E94201B20E030EC43E255E40E94BD1A32
S1131AE06DAB7EAB8FAB98AF612F70E080E090E080
S1131AF00E94DF1920E030E040E85FE30E947B1899
S1131B009B01AC016EEA77E481E89FE30E94201B0D
S1131B1020E030EC43E255E40E94BD1A69AF7AAF8D
S1131B208BAF9CAFCE0185969EAF8DAF072D162D42
S1131B30DE01D1962196BFAFAEAF2197E12CF12CF7
S1131B40F501619171915F01D6018D919D916D01B6
S1131B50EDADFEAD4190519061907190FEAFEDAF4F
S1131B60681B790B072E000C880B990B0E94E11956
S1131B7020E030E048EC52E40E94BD1AA301920137
S1131B800E944619D8016D937D938D939C9313976E
S1131B90F101619171911F01D4018D919D914D01CC
S1131BA02196EEADFFAD21974190519061907190D7
S1131BB02196FFAFEEAF2197681B790B072E000C1F
S1131BC0880B990B0E94E11920E030E048EC52E4C4
S1131BD00E94BD1AA30192010E944619D8011C96C5
S1131BE06D937D938D939C931F97BFEFEB1AFB0A24
S1131BF00C5F1F4FE3E0EE16F10409F0A1CFC05CC7
S1131C00DF4F0FB6F894DEBF0FBECDBFDF91CF918B
S1131C101F910F91FF90EF90DF90CF90BF90AF9006
S1131C209F908F907F906F905F904F903F902F90F8
S1131C300895CF92DF92FF920F931F93CF93DF9378
S1131C401F92CDB7DEB7182F6983F42E690184E49F
S1131C5094E09F938F930E94FA211F921F938BE528
S1131C6094E09F938F930E94FA2189811F928F930E
S1131C708BE694E09F938F930E94FA2100E021E089
S1131C8041E0BE016F5F7F4F812F86D50FB6F89478
S1131C90DEBF0FBECDBF811112C01F921F93898179
S1131CA01F928F9386E894E09F938F930E94FA216A
S1131CB00F900F900F900F900F900F9022C08230D2
S1131CC049F48CEA94E09F938F930E94FA210F9039
S1131CD00F9017C0833049F489EA94E09F938F935F
S1131CE00E94FA210F900F900CC01F928F9380EDE9
S1131CF094E09F938F930E94FA210F900F900F907E
S1131D000F9021E04F2DB601812FF8D4F81681F001
S1131D101F92FF921F928F938AEE94E09F938F936A
S1131D200E94FA210F900F900F900F900F900F9038
S1131D308DE195E09F938F930E94FA210F900F906D
S1131D400F90DF91CF911F910F91FF90DF90CF9073
S1131D5008950F931F93CF93DF931F92CDB7DEB7F0
S1131D60182F062F82E395E09F938F930E94FA2108
S1131D709E012F5F3F4F41E0602F812F5ADF898101
S1131D800F900F900F90DF91CF911F910F910895B5
S1131D902F923F924F925F926F927F928F929F9277
S1131DA0AF92BF92CF92DF92EF92FF920F931F9365
S1131DB0CF93DF93CDB7DEB768970FB6F894DEBF45
S1131DC00FBECDBF9C8B8B8B788F6F8B86E0E0E151
S1131DD0F2E0DE01119601900D928A95E1F786E01A
S1131DE0E6E1F2E0DE01179601900D928A95E1F7A3
S1131DF01E861D86188A1F861A8A198A88E495E029
S1131E000E9412222FE78AE196E021508040904000
S1131E10E1F700C0000000E810E0CE010D961FDCE1
S1131E209E01235F3F4FFE0131967E01A7E0EA0E3B
S1131E30F11CB701D9018D919D919D014081518182
S1131E404817590714F491838083D7014D915C910D
S1131E5011978417950714F48D939C933296B2E0EE
S1131E60EB0EF11CE617F70729F7E5EDF3E83197D8
S1131E70F1F700C000000150110979F6A980BA8079
S1131E808F809884CB80DC8069847A84ED80FE80A6
S1131E900B851C85B501680D791D772314F46F5FDC
S1131EA07F4F75956795072E000C880B990B0E9440
S1131EB0E1192091420B3091430B4091440B509116
S1131EC0450B0E94BD1A209148093091490940915F
S1131ED04A0950914B090E94BD1AAB89BC896D9384
S1131EE07D938D939C9313972090420B3090430BDA
S1131EF04090440B5090450BB601660D771D772337
S1131F0014F46F5F7F4F75956795072E000C880B4F
S1131F10990B0E94E119A20191010E94BD1A20911E
S1131F204C0930914D0940914E0950914F090E943E
S1131F30BD1AEB89FC896483758386839783B70113
S1131F40600F711F772314F46F5F7F4F759567954A
S1131F50072E000C880B990B0E94E119A201910134
S1131F600E94BD1A209150093091510940915209A3
S1131F70509153090E94BD1AAB89BC8918966D9380
S1131F807D938D939C931B97A818B90845011AF467
S1131F90BFEF8B1A9B0A95948794C60186199709FB
S1131FA06C011AF4EFEFCE1ADE0AD594C794E01A46
S1131FB0F10A27011AF4FFEF4F1A5F0A5594479468
S1131FC0092C000CAA08BB080D2C000CEE08FF0815
S1131FD0D501C4018C0D9D1DAE1DBF1D052C000C2B
S1131FE066087708BC01CD01640D751D861D971D1B
S1131FF00E94E11920E030E040E450E40E944619D8
S11320006B8B7C8B8D8B9E8BC501B4010E94E11977
S11320109B01AC016B897C898D899E890E9446193C
S1132020AF89B88D6D937D938D939C931397C7015E
S1132030B6010E94E1199B01AC016B897C898D89F1
S11320409E890E944619EF89F88D6483758386837F
S11320509783C301B2010E94E1199B01AC016B8912
S11320607C898D899E890E944619AF89B88D1896FE
S11320706D937D938D939C931B9783E895E00E94C9
S1132080122268960FB6F894DEBF0FBECDBFDF9163
S1132090CF911F910F91FF90EF90DF90CF90BF9061
S11320A0AF909F908F907F906F905F904F903F90F4
S11320B02F900895EF92FF921F93CF93DF93249A6A
S11320C02C98259A2D9A89E995E09F938F930E94E5
S11320D0FA2183EA95E09F938F930E94FA2182EB81
S11320E095E09F938F930E94FA2182EC95E09F9351
S11320F08F930E94FA212FEF80E792E021508040D5
S11321009040E1F700C0000065E788E635DAC82FA3
S11321101F928F938EEC95E09F938F930E94FA21E8
S11321202FEF80E792E0215080409040E1F700C01B
S113213000008DB79EB70C960FB6F8949EBF0FBEE5
S11321408DBFC13709F09DC183EF95E09F938F93B5
S11321500E94FA2188EF9AE0C2DAC8EFDAE08B81B4
S11321608F938A818F9389818F9388818F938AE05B
S113217096E09F938F930E94FA218F818F938E8193
S11321808F938D818F938C818F938FE496E09F93AF
S11321908F930E94FA218B858F938A858F938985EB
S11321A08F9388858F9384E996E09F938F930E9401
S11321B0FA218F858F938E858F938D858F938C8550
S11321C08F9389ED96E09F938F930E94FA218B89D8
S11321D08F938A898F9389898F9388898F938AE1D2
S11321E097E09F938F930E94FA218DB79EB78096B4
S11321F00FB6F8949EBF0FBE8DBF8F898F938E89C3
S11322008F938D898F938C898F938BE597E09F9320
S11322108F930E94FA2164E579E080E699E00E94B8
S113222077078CE997E09F938F930E94FA218BEABA
S113223097E09F938F930E94FA21C4E5D9E020E0B0
S113224030E04AE754E4688579858A859B850E9455
S1132250BD1A0E94AE197F936F9320E030E04AE7E5
S113226054E46C817D818E819F810E94BD1A0E94FD
S1132270AE197F936F9320E030E04AE754E468811D
S113228079818A819B810E94BD1A0E94AE197F9335
S11322906F9388EB97E09F938F930E94FA21E0E677
S11322A0F9E083858F9382858F9381858F938085D1
S11322B08F9387818F9386818F9385818F93848178
S11322C08F9383818F9382818F9381818F93808178
S11322D08F9386EC97E09F938F930E94FA219FE35C
S11322E02DE083E0915020408040E1F700C00000E1
S11322F08DB79EB780960FB6F8949EBF0FBE8DBF64
S11323004AD984ED97E09F938F930E94FA210F900E
S11323100F900F2EF3E0EF2EF8E0FF2EF02D42E2A7
S113232067E388E60E943B0641E068E388E60E9492
S11323303B0667E388E620D9C82F64E288E61CD907
S1132340D82F68E388E618D9182F65E788E614D9EA
S11323501F928F931F921F931F92DF931F92CF930D
S1132360FF92EF920E94FA218DB79EB70A960FB69C
S1132370F8949EBF0FBE8DBFC23229F4D11103C0A1
S1132380113009F493C09FEF20E782E09150204080
S11323908040E1F700C00000C2CF9FE32DE083E05E
S11323A0915020408040E1F700C0000088E499E0AB
S11323B00E94DF0685E598E09F938F930E94FA219F
S11323C00E949E0560E379E08CE399E0E1DCC8E4D7
S11323D0D9E08B818F938A818F9389818F938881B0
S11323E08F9383E898E09F938F930E94FA218F81C3
S11323F08F938E818F938D818F938C818F938CE8B3
S113240098E09F938F930E94FA218B858F938A85FE
S11324108F9389858F9388858F9385E998E09F931F
S11324208F930E94FA219FE32DE083E09150204096
S11324308040E1F700C000008DB79EB744960FB608
S1132440F8949EBF0FBE8DBF0CC01F92CF938EE930
S113245098E09F938F930E94FA210F900F900F9012
S11324600F9065E788E688D81F928F938EEC95E0ED
S11324709F938F930E94FA210F900F900F900F90CB
S11324800CC01F92CF9382EC98E09F938F930E948D
S1132490FA210F900F900F900F9087EE98E09F9382
S11324A08F930E94FA210F900F901DC09FEF20E799
S11324B082E0915020408040E1F700C0000060E0DD
S11324C08CE047DCC82F1F928F9384EF98E09F9392
S11324D08F930E94FA210F900F900F900F90C834A1
S11324E009F0B3CF5ACFDF91CF911F91FF90EF90B6
S11324F008951F920F920FB60F9211242F938F936A
S11325009F93809180099091810901968130910572
S113251029F090938109809380090AC0109281095F
S11325201092800981E090E090937F0980937E0966
S113253080917C0990917D0901968431910529F05F
S113254090937D0980937C090AC010927D091092B2
S11325507C0981E090E090937B0980937A098091D3
S11325607809909179090196803F910529F090931B
S11325707909809378090AC0109279091092780930
S113258081E090E0909377098093760980917409B3
S1132590909175090196843F21E0920729F0909368
S11325A07509809374090AC0109275091092740910
S11325B081E090E09093730980937209809170098F
S11325C0909171090196883E23E0920729F0909337
S11325D07109809370090AC01092710910927009F0
S11325E081E090E090936F0980936E0986E086BD48
S11325F09F918F912F910F900FBE0F901F90189560
S113260014BC83E085BDEEE6F0E0808181608083C8
S113261008958130910569F480917E0990917F0934
S11326208130910509F042C010927F0910927E0911
S113263008958431910561F480917A0990917B0920
S113264081309105B1F510927B0910927A090895B1
S1132650803F910561F480917609909177098130EA
S1132660910551F510927709109276090895843FE7
S113267021E0920761F4809172099091730981308D
S11326809105E9F410927309109272090895883E35
S11326909340C1F480916E0990916F098130910546
S11326A0A1F410926F0910926E09089580E090E0F1
S11326B0089580E090E0089580E090E0089580E03F
S11326C090E0089580E090E0089580E090E008951F
S11326D01092EF0981E08093ED091092EC09E9EB87
S11326E0F0E080818E7F808380818D7F808388E489
S11326F08093B80085E48093BC000895413208F0CB
S113270048C09091EF099111FCCF31E03093EF096B
S11327102093ED092FEF209382091092C709240F0B
S11327202093C6091092EE093093EE092091EE0928
S1132730880F822B8093EE098091EC09813051F44B
S11327401092EC098091EE098093BB0085EC809394
S1132750BC0003C085EE8093BC008091EF098130FA
S1132760E1F38091C709841710F44091C709442309
S113277089F0E8ECF9E0A62FB72F2FEF240F30E013
S11327802753364F81918D93E217F307D9F7942F8E
S113279001C090E0892F08950F93413208F053C08F
S11327A03091EF093111FCCF92E09093EF0900933F
S11327B0ED099FEF909382091092C7094093C609CF
S11327C0442371F0FB01A8ECB9E0415050E04F5FA5
S11327D05F4F640F751F91919D93E617F707D9F723
S11327E01092EE091092EE099091EE09880F892B50
S11327F08093EE098091EC09813051F41092EC0938
S11328008091EE098093BB0085EC8093BC0003C0EB
S113281085EE8093BC00222341F08091EF09823041
S113282021F48091EF098230E1F3809182098F3F96
S113283079F080918209803241F08091820980335D
S113284031F034E005C031E003C032E001C033E0D0
S1132850832F0F91089585ED8093BC00ECEBF0E09D
S1132860808184FDFDCF1092EF09089585EC80935B
S1132870BC001092EF0908951F920F920FB60F92A9
S113288011240BB60F922F933F934F935F936F9343
S11328907F938F939F93AF93BF93EF93FF93809115
S11328A0B900887F90E0893C910508F0F0C0FC01F4
S11328B08827EE58FF4F8F4F0C9471208091EE09BA
S11328C08093BB0085EC8093BC00E1C09091C70964
S11328D08091C609981780F4E091C70981E08E0FB2
S11328E08093C709F0E0E853F64F80818093BB00E2
S11328F085EC8093BC00CBC08091ED09882311F056
S1132900AADFC5C081E08093EC0984EA8093BC000F
S11329101092EF09BCC080E2809382099CDFB7C0AB
S113292080E38093820997DFB2C088E380938209B1
S11329309DDFADC0E091C70981E08E0F8093C70988
S11329408091BB00F0E0E853F64F80839091C70973
S11329508091C609981720F485EC8093BC0097C039
S113296085E88093BC0093C0E091C70981E08E0F95
S11329708093C7098091BB00F0E0E853F64F808351
S11329808091ED09882311F066DF81C081E0809396
S1132990EC0984EA8093BC001092EF0978C05BDFF5
S11329A076C083E08093EF091092830985EC8093CD
S11329B0BC006DC080918309803280F4E09183096A
S11329C081E08E0F809383098091BB00F0E0EC5787
S11329D0F64F808385EC8093BC0059C085E88093D2
S11329E0BC0055C080918309803230F4E0918309A2
S11329F0F0E0EC57F64F10822EDF6091830970E00F
S1132A00E091E809F091E90984E899E019951092B8
S1132A1083092CDF3CC085E88093BC0038C084E087
S1132A208093EF091092A5091092A409E091EA0994
S1132A30F091EB0919958091A409811105C081E0F9
S1132A408093A4091092A609E091A50981E08E0F54
S1132A508093A509F0E0EA55F64F80818093BB008E
S1132A609091A5098091A409981720F485EC80938E
S1132A70BC000DC085E88093BC0009C085EC809340
S1132A80BC001092EF0903C010928209E4DEFF91AA
S1132A90EF91BF91AF919F918F917F916F915F91D2
S1132AA04F913F912F910F900BBE0F900FBE0F903F
S1132AB01F901895CF93C82F8A3011F48DE0FADF58
S1132AC0E0ECF0E0808185FFFDCFC093C600CF919C
S1132AD008951F920F920FB60F9211240BB60F9206
S1132AE02F933F938F939F93EF93FF93E091F1097B
S1132AF081E08E0F8093F1099091C600F0E0ED52D1
S1132B00F44F9083282F30E0F901EE52F44F908176
S1132B109A3051F4F901ED52F44F10821092F109F8
S1132B2081E08093F00904C08E3F10F01092F10907
S1132B30FF91EF919F918F913F912F910F900BBE39
S1132B400F900FBE0F901F901895DC01CB01880FDA
S1132B50991FAA1FBB1F880F991FAA1FBB1F9C0187
S1132B60AD01220F331F441F551F60E074E284EF50
S1132B7090E00E943320215031093093C500209306
S1132B80C40082E08093C00088E98093C10086E09D
S1132B908093C20082E092E09093D50D8093D40D8F
S1132BA008958A3010F0895C0895805D0895EF924D
S1132BB0FF921F93CF93DF93FC0101900020E9F76C
S1132BC03197AF01481B590BC0E060E00AC0FC011B
S1132BD0E20FF31F20812C3219F4683041F06F5F4B
S1132BE0CF5F2C2F30E02417350788F35AC024E236
S1132BF02093520BC531D8F0FC01A1E5BBE094E170
S1132C009E3128F4848912968C9312970BC081EE1E
S1132C10890F8C3018F484898C9304C09D3210F091
S1132C2084898C939F5F31961196C913E9CFD0E0C4
S1132C30FE01EE5AF44F8AE280838091530B8A326C
S1132C4061F091E010E018279F5FE92FF0E0EE5A61
S1132C50F44F80818A32B9F701C010E0812F829548
S1132C608F709FDF9E012E5A344F7901F9018183C1
S1132C70812F8F7096DFF70182838AE08383249605
S1132C8080E090E010E0FC01EE5AF44F808190E087
S1132C900E940D221F5F812F90E08C179D079CF3EB
S1132CA005C084E28093520BC0E0C1CFDF91CF9185
S1132CB01F91FF90EF900895CF92DF92EF92FF92D1
S1132CC00F931F93CF93DF93CDB7DEB764970FB6FF
S1132CD0F894DEBF0FBECDBF20E42093520B20E05A
S1132CE030E040E251E449D439D3DC01CB014AE07D
S1132CF050E0BE016F5F7F4F0E94912120E0DE0112
S1132D0011960CC0822F90E0AC014E5A544F8A0F9A
S1132D109B1FFC018081FA0181832F5FFD010190DB
S1132D200020E9F73197EA1BFB0B822F90E08E1706
S1132D309F0740F3EE5AF44F8AE281838091530B4C
S1132D408A3261F091E010E018279F5FE92FF0E0EC
S1132D50EE5AF44F80818A32B9F701C010E0CE01F7
S1132D6001966C01FC0101900020E9F731977F0185
S1132D70E81AF90A812F82958F7013DFF701EE5A52
S1132D80F44F8283F60101900020E9F731977F0127
S1132D90EC18FD08812F8F7004DFF701EE5AF44F11
S1132DA08383F60101900020E9F7EC19FD09EF5A3D
S1132DB0F44F8AE08483F12C860109C0EF2DF0E002
S1132DC0EE5AF44F808190E00E940D22F394F801B2
S1132DD001900020E9F7CF01801B910B2F2D30E0EB
S1132DE004962817390750F364960FB6F894DEBF9B
S1132DF00FBECDBFDF91CF911F910F91FF90EF9048
S1132E00DF90CF9008958091F009882321F01092EB
S1132E10F00981E0089580E00895CF93DF93EC01F9
S1132E20F2DF882309F459C08091D30B8F3F09F056
S1132E3053C08091D40B8F3F09F04EC09091D50BB5
S1132E409B3F09F04CC09091D90B9A3209F047C0CE
S1132E5020E030E001C0292F382791E0920FE92FBC
S1132E60F0E0ED52F44F80818A32A9F7E22FF0E0CE
S1132E70ED52F44F8281381731F08CE199E00E94D1
S1132E8012228EEF31C063ED7BE0CE010E947F21E0
S1132E9081E02AC0292F02C020E030E0382791E0E9
S1132EA0920FE92FF0E0ED52F44F80818A3291F7CE
S1132EB0E22FF0E0ED52F44F8281381731F08CE1CB
S1132EC099E00E9412228EEF0FC063ED7BE0CE01E9
S1132ED00E947F2182E008C007C08FEF05C0909157
S1132EE0D50B9D3FC9F7D8CFDF91CF910895DC0171
S1132EF0CB01880F991FAA1FBB1F880F991FAA1FF8
S1132F00BB1F9C01AD01220F331F441F551F60E0FE
S1132F1074E284EF90E00E94332021503109309311
S1132F20CD002093CC0082E08093C80088E0809399
S1132F30C90086E08093CA000895E8ECF0E090812F
S1132F4095FFFDCF8093CE000895CF93DF93CDB747
S1132F50DEB7D2500FB6F894DEBF0FBECDBF20E06F
S1132F6032E0ECE1F2E0DE01119601900D92215085
S1132F703040D9F741155105C1F0DB01640F751FCD
S1132F805D91382F2227E92FFF27E527EE0FFF1F3A
S1132F9081E090E08C0F9D1FE80FF91F80819181E3
S1132FA082279327A617B70759F7DE5F0FB6F89461
S1132FB0DEBF0FBECDBFDF91CF910895FF920F9377
S1132FC01F93CF93DF93E2E5FDE09FEF908391831E
S1132FD09DEF92831382848383E0840F8583242F5F
S1132FE030E0C901039696836783285F3F4F2930F9
S1132FF031058CF0C8E0D0E088E0FE01EE5AF24FD3
S1133000C653D34F988190838F5FC82FD0E0C217E7
S1133010D3079CF302C0C8E0D0E0485F042F10E05F
S1133020A80162E57DE080E090E08FDFCE5AD24FC8
S1133030888399838FE99FE00197F1F700C000002E
S11330400E5F1F4F80E090E0F12CC8ECD0E02881A7
S113305020642883FC01EE5AF24F80816EDFF394E2
S11330608F2D90E08017910794F3E8ECF0E08081D5
S113307086FFFDCF8FE99FE00197F1F700C00000C4
S1133080DF91CF911F910F91FF900895E2EDFCE045
S113309090E490831182628343E063E08FCF0895CC
S11330A0E2EDFCE098E690831182428353836483CB
S11330B0758346E063E082CF0895CF92DF92EF926A
S11330C0FF920F931F93CF93C62FBA01A9016701F3
S11330D07801E6DF44275527BA014C195D096E09CA
S11330E07F098C2FDDDFCF911F910F91FF90EF901F
S11330F0DF90CF9008955058BB27AA270ED0FCC16B
S1133100EDD130F0F2D120F031F49F3F11F41EF4F0
S1133110BDC10EF4E095E7FBB3C1E92FFED180F306
S1133120BA17620773078407950718F071F49EF5C0
S113313016C20EF4E0950B2EBA2FA02D0B01B90187
S113314090010C01CA01A0011124FF27591B99F019
S1133150593F50F4503E68F11A16F040A22F232F25
S1133160342F4427585FF3CF469537952795A79575
S1133170F0405395C9F77EF41F16BA0B620B730B1C
S1133180840BBAF09150A1F0FF0FBB1F661F771F8D
S1133190881FC2F70EC0BA0F621F731F841F48F442
S11331A0879577956795B795F7959E3F08F0B3CFC8
S11331B09395880F08F09927EE0F979587950895B2
S11331C08DD158F080E891E009F49EEF8ED128F07B
S11331D040E851E059F45EEF09C058C1C0C1E92F7D
S11331E0E0789BD168F3092E052AC1F32617370727
S11331F04807590738F00E2E07F8E02569F0E02556
S1133200E0640AC0EF6307F8009407FADB01B90130
S11332109D01DC01CA01AD01EF9347D06DD10AD005
S11332205F91552331F02BED3FE049E450FD49EC2B
S113323063CF0895DF93DD27B92FBF7740E85FE3BD
S11332401616170648075B0710F4D92F8FD19F93E2
S11332508F937F936F9360D2E6E7F2E01AD14CD15B
S11332602F913F914F915F9194D1DD2349F0905874
S1133270A2EA2AED3FE049EC5FE3D0785D274DDF19
S1133280DF913AC1D9D008F481E008950CD034C15B
S11332902CD140F023D130F021F45F3F19F0F0C07D
S11332A051115EC1F3C039D198F39923C9F3552361
S11332B0B1F3951B550BBB27AA2762177307840725
S11332C038F09F5F5F4F220F331F441FAA1FA9F3DB
S11332D033D00E2E3AF0E0E830D091505040E695CD
S11332E0001CCAF729D0FE2F27D0660F771F881F2E
S11332F0BB1F261737074807AB07B0E809F0BB0B1D
S1133300802DBF01FF2793585F4F2AF09E3F510540
S113331068F0B6C025C15F3FECF3983EDCF38695B8
S113332077956795B795F7959F5FC9F7880F911DB6
S11333309695879597F90895E1E0660F771F881FA2
S1133340BB1F621773078407BA0720F0621B730B55
S1133350840BBA0BEE1F88F7E095089504D06894A7
S1133360B111FEC00895E1D088F09F5790F0B92FB5
S11333709927B751A0F0D1F0660F771F881F991FC6
S11333801AF0BA95C9F712C0B13081F0E8D0B1E0B3
S11333900895E5C0672F782F8827B85F39F0B93FC3
S11333A0CCF3869577956795B395D9F73EF49095C8
S11333B08095709561957F4F8F4F9F4F0895E89446
S11333C009C097FB3EF490958095709561957F4F69
S11333D08F4F9F4F9923A9F0F92F96E9BB27939517
S11333E0F695879577956795B795F111F8CFFAF427
S11333F0BB0F11F460FF1BC06F5F7F4F8F4F9F4F58
S113340016C0882311F096E911C0772321F09EE8B5
S1133410872F762F05C0662371F096E8862F70E01B
S113342060E02AF09A95660F771F881FDAF7880FF5
S11334309695879597F90895990F0008550FAA0B4B
S1133440E0E8FEEF16161706E807F907C0F01216B3
S11334501306E407F50798F0621B730B840B950BB6
S113346039F40A2661F0232B242B252B21F408950B
S11334700A2609F4A140A6958FEF811D811D0895A8
S113348097F99F6780E870E060E008959FEF80EC13
S11334900895DF93CF931F930F93FF92EF92DF92E0
S11334A07B018C01689405C0DA2EEF0172D0FE0115
S11334B0E894A5912591359145915591AEF3EF018D
S11334C02CDEFE019701A801DA9479F7DF90EF90E2
S11334D0FF900F911F91CF91DF91089500240A94DA
S11334E01616170618060906089500240A941216DB
S11334F01306140605060895092E0394000C11F40E
S1133500882352F0BB0F40F4BF2B11F460FF04C0BA
S11335106F5F7F4F8F4F9F4F089557FD9058440F13
S1133520551F59F05F3F71F04795880F97FB991F1E
S113353061F09F3F79F087950895121613061406DB
S1133540551FF2CF4695F1DF08C016161706180668
S1133550991FF1CF86957105610508940895E89443
S1133560BB2766277727CB0197F908959B01AC0108
S113357060E070E080E89FE389CE0BD0BDCFAEDF82
S113358028F0B3DF18F0952309F07ACF7FCF112408
S1133590E7CFC3DFA0F3959FD1F3950F50E0551FFC
S11335A0629FF001729FBB27F00DB11D639FAA2794
S11335B0F00DB11DAA1F649F6627B00DA11D661FE3
S11335C0829F2227B00DA11D621F739FB00DA11D04
S11335D0621F839FA00D611D221F749F3327A00DBE
S11335E0611D231F849F600D211D822F762F6A2F5A
S11335F011249F5750408AF0E1F088234AF0EE0FDF
S1133600FF1FBB1F661F771F881F91505040A9F7EB
S11336109E3F510570F034CFA3CF5F3FECF3983E4B
S1133620DCF3869577956795B795F795E7959F5F52
S1133630C1F7FE2B880F911D9695879597F90895EC
S1133640FA01EE0FFF1F30962105310599F161153E
S1133650710561F48038BFE39B0749F168949038A1
S1133660810561F08038BFEF9B0741F0992342F553
S1133670FF3FE1053105210511F1E8940894E79530
S1133680D901AA2329F4AB2FBE2FF85FD0F310C0C1
S1133690FF5F70F4A695E0F7F73950F019F0FF3AA0
S11336A038F49F779F930CD00F9007FC905808959F
S11336B03EF0ECCE60E070E080E89FE308954FE7D1
S11336C09F775F934F933F932F93BED02F913F915A
S11336D04F915F9152DF28C028DFE0F09E37D8F089
S11336E09639B8F49E3848F4672F782F8827985F66
S11336F0F9CF86957795679593959539D0F3B62F3D
S1133700B1706B0F711D811D20F4879577956795B6
S1133710939536C050C024CF9B01AC012ECF19F431
S11337200EF0AECE1CCFB2CE00DFC8F39638C0F791
S113373007F80F92E8942BE33AEA48EB5FE72BDFB4
S11337400F920F920F924DB75EB70F92BDD0E3EA7E
S1133750F2E09FDE4F915F91EF91FF91E595EE1FAF
S1133760FF1F49F0FE57E0684427EE0F441FFA9507
S1133770E1F74195550B2FD00F9007FEF7CE089532
S1133780882371F4772321F09850872B762F07C074
S1133790662311F499270DC09051862B70E060E0E8
S11337A02AF09A95660F771F881FDAF7880F969587
S11337B0879597F908959F3F31F0915020F48795AC
S11337C077956795B795880F911D9695879597F985
S11337D0089556CEF0CFA9DEE8F39923D9F3940FD8
S11337E0511DBBF39150504094F059F0882332F0AE
S11337F0660F771F881F91505040C1F79E3F5105B7
S113380044F7880F911D9695879597F908955F3F22
S1133810ACF0983E9CF0BB27869577956795B79555
S113382008F4B1609395C1F7BB0F58F711F460FF2A
S1133830E8CF6F5F7F4F8F4F9F4FE3CF91CE0EF056
S1133840BACF24CE68941CCE70DEC8F39923D1F38A
S1133850C6F3DF93CF931F930F93FF92C92FDD27F6
S113386088232AF02197660F771F881FDAF720E054
S113387030E040E85FEB9FE3883920F0803E30F091
S113388021968F7739DCEBECF2E003C035DCE8EF0E
S1133890F2E0FFDD8B01BE01EC01FB2E6F577109D5
S11338A07595771F880B990B8CDD28E132E741E38E
S11338B05FE36FDEAF2D9801AE01FF900F911F9172
S11338C0CF91DF912ADC18CEFA01DC01AA0FBB1FCD
S11338D09B01AC01BF5728F4222733274427507893
S11338E01FC0B75188F4AB2F002446953795279510
S11338F0011CA395D2F3002069F0220F331F441F4B
S1133900B395DAF30DD0F7CB61307105A0E88A07DF
S1133910B94630F49B01AC01662777278827907855
S1133920309621F0208331834283538308952F926C
S11339303F924F925F926F927F928F929F92AF923B
S1133940BF92CF92DF92EF92FF920F931F93CF9388
S1133950DF93CDB7DEB760970FB6F894DEBF0FBE26
S1133960CDBF7C011B016A01FC0117821682838191
S113397081FF2AC39E012F5F3F4F3901F7019381D5
S1133980F10193FD859193FF81911F01882309F42F
S113399017C3853239F493FD859193FF81911F01FB
S11339A0853231F4B70190E0E9D456016501E6CFE0
S11339B010E0512C912CFFE1F915D8F08B3279F0FD
S11339C038F4803279F08332A1F4F92DF0612EC0FD
S11339D08D3261F0803369F4292D21602DC0392D99
S11339E03260932E892D8460982E2AC0E92DE860D8
S11339F015C097FC2DC020ED280F2A3088F496FEC0
S1133A0006C03AE0139F200D1124122F19C08AE03A
S1133A10589E200D1124522EE92DE0629E2E10C0D6
S1133A208E3231F496FCCCC2F92DF0649F2E08C07E
S1133A308C3621F4292D2068922E02C0883641F458
S1133A40F10193FD859193FF81911F018111B3CF02
S1133A509BEB980F933020F4992D9061805E07C002
S1133A609BE9980F933008F059C1992D9F7E96FFDA
S1133A7016E09F73992E853619F49064992E08C028
S1133A80863621F4392F3068932E02C0111111505B
S1133A9097FE07C01C3350F444244394410E27E09E
S1133AA00BC0183038F027E017E005C027E09CE38E
S1133AB0492E02C0212F412C560184E0A80EB11CCE
S1133AC0F6016081718182819381042DA30134D335
S1133AD06C01F981FC87F0FF02C0F3FF06C091FC82
S1133AE006C092FE06C000E205C00DE203C00BE270
S1133AF001C000E08C858C7019F0011143C280C2B2
S1133B0097FE10C04C0CFC85F4FF04C08A818133FD
S1133B1009F44A94141474F528E0241578F588E01F
S1133B20482E2CC096FC2AC0812F90E08C159D0550
S1133B309CF03CEFC3163FEFD30674F0892D8068E8
S1133B40982E0AC0E2E0F0E0EC0FFD1FE10FF11D3A
S1133B508081803319F411501111F4CF97FE0EC0F7
S1133B6044244394410E812F90E0C816D9062CF4C6
S1133B701C1904C04424439401C010E097FE06C0FD
S1133B801C141D0434F4C601019605C085E090E0C0
S1133B9002C081E090E001110196112331F0212F40
S1133BA030E02F5F3F4F820F931F252D30E08217A7
S1133BB0930714F4581A01C0512C892D897041F4CB
S1133BC0552031F0B70180E290E0D8D35A94F8CF71
S1133BD0002321F0B701802F90E0D0D393FC08C0DC
S1133BE0552031F0B70180E390E0C8D35A94F8CF60
S1133BF097FE4AC04601D7FE02C0812C912CC60113
S1133C0088199909F301E80FF91FFE87ED879601DA
S1133C1024193109388B2F87012F10E01195019554
S1133C2011093FEF8316930621F4B7018EE290E069
S1133C30A5D3C814D9044CF08F85988988159905A3
S1133C4024F4ED85FE85818101C080E3F1E08F1AC3
S1133C5091082D853E852F5F3F4F3E872D87801627
S1133C60910624F0B70190E089D3DBCFC814D904BE
S1133C7041F49A81963320F4953319F43C8534FF4A
S1133C8081E3B70190E048C08A81813319F09C85B3
S1133C909F7E9C87B70190E071D3111105C094FCFD
S1133CA016C085E690E015C0B7018EE290E066D3B9
S1133CB01E5F82E001E0080FF301E80FF11D80812F
S1133CC0B70190E05BD3802F0113F4CFE8CF85E4F4
S1133CD090E0B70153D3D7FC06C0C114D10441F41A
S1133CE0EC85E4FF05C0D194C194D1088DE201C0F4
S1133CF08BE2B70190E042D380E32AE0C216D104FC
S1133D002CF08F5FFAE0CF1AD108F7CFB70190E01B
S1133D1035D3B701C601C09631D349C1833631F0DA
S1133D20833779F0833509F052C01FC0560132E061
S1133D30A30EB11CF6018081898301E010E06301C8
S1133D4011C05601F2E0AF0EB11CF601C080D18063
S1133D5096FE03C0612F70E002C06FEF7FEFC601D3
S1133D60D5D28C01F92DFF7713C0560122E0A20EA3
S1133D70B11CF601C080D18096FE03C0612F70E0B3
S1133D8002C06FEF7FEFC601AFD28C01F92DF0684E
S1133D909F2EF3FD18C0852D90E00817190798F49D
S1133DA0B70180E290E0EAD25A94F5CFF60197FC8D
S1133DB0859197FE81916F01B70190E0DFD2511098
S1133DC05A94015011090115110581F7F0C0843688
S1133DD011F0893659F5560197FE09C024E0A20E68
S1133DE0B11CF60160817181828193810AC0F2E085
S1133DF0AF0EB11CF60160817181072E000C880B97
S1133E00990BF92DFF769F2E97FF09C09095809509
S1133E10709561957F4F8F4F9F4FF0689F2E2AE0DA
S1133E2030E0A3012FD3C82EC6183EC0092D853714
S1133E3021F40F7E2AE030E01DC0097F8F3691F017
S1133E4018F4883559F0BCC0803719F0883711F060
S1133E50B7C0006104FF09C0046007C094FE08C035
S1133E60066006C028E030E005C020E130E002C072
S1133E7020E132E0560107FF09C084E0A80EB11C1E
S1133E80F601608171818281938108C0F2E0AF0EF6
S1133E90B11CF6016081718180E090E0A301F2D24F
S1133EA0C82EC6180F77902E96FE0BC0092D0E7FD4
S1133EB0C11650F494FE0AC092FC08C0092D0E7E6F
S1133EC005C0DC2C092D03C0DC2C01C0D12E04FF5D
S1133ED00DC0FE01EC0DF11D8081803311F4097ECB
S1133EE009C002FF06C0D394D39404C0802F8678FF
S1133EF009F0D39403FD10C000FF06C01C2DD51497
S1133F0078F4150D1D190CC0D51450F4B70180E2D6
S1133F1090E034D2D394F8CFD51410F45D1801C0D6
S1133F20512C04FF0FC0B70180E390E027D202FFB9
S1133F3016C001FD03C088E790E002C088E590E068
S1133F40B7010CC0802F867851F001FF02C08BE2CC
S1133F5001C080E207FD8DE2B70190E00FD2C116E7
S1133F6030F4B70180E390E009D21150F8CFCA943D
S1133F70F301EC0DF11D8081B70190E0FFD1C11078
S1133F80F6CF15C0F4E0F51550F584E0581A93FE09
S1133F901EC0011125C02C8523FF27C006E213E0B3
S1133FA0392D3071932EF8018491811121C055204F
S1133FB009F4FCCCB70180E290E0E0D15A94F7CF49
S1133FC0F7018681978123C08FEF9FEF20C0B7014F
S1133FD080E290E0D3D15A945110F9CFDACF512C2A
S1133FE0B701802F90E0CAD1D6CF0AE213E0D8CF30
S1133FF091108052B70190E0C1D10F5F1F4FD3CF12
S113400023E0251510F483E0C1CF512CC4CF609672
S11340100FB6F894DEBF0FBECDBFDF91CF911F91D5
S11340200F91FF90EF90DF90CF90BF90AF909F9053
S11340308F907F906F905F904F903F902F90089556
S113404097FB072E16F4009406D077FD08D060D0B5
S113405007FC05D03EF4909581959F4F0895709587
S113406061957F4F0895A1E21A2EAA1BBB1BFD0187
S11340700DC0AA1FBB1FEE1FFF1FA217B307E40743
S1134080F50720F0A21BB30BE40BF50B661F771F9B
S1134090881F991F1A9469F760957095809590957B
S11340A09B01AC01BD01CF010895052E97FB16F4C9
S11340B000940FD057FD05D0D6DF07FC02D046F49C
S11340C008C050954095309521953F4F4F4F5F4F15
S11340D0089590958095709561957F4F8F4F9F4F70
S11340E00895EE0FFF1F881F8BBF0790F691E02DF8
S11340F01994A29FB001B39FC001A39F700D811DAD
S11341001124911DB29F700D811D1124911D0895DC
S1134110AA1BBB1B51E107C0AA1FBB1FA617B707E9
S113412010F0A61BB70B881F991F5A95A9F7809505
S11341309095BC01CD010895283008F027E033277D
S1134140DA01990F311D87FD9160009661057105B3
S113415039F432602E5F3D9330E32A95E1F70895F8
S11341609F3F30F080387105610509F03C5F3C5F8A
S11341703D93913008F08068911DDF93CF931F9396
S11341800F93FF92EF92192F987F9695E92F9695AA
S11341909695E90FFF27E857FC4F99273327EE241C
S11341A0FF24A701E70105900894079428F4360F2B
S11341B0E71EF81E491F511D660F771F881F991FA0
S11341C00694A1F70590079428F4E70EF81E491FFA
S11341D0561FC11D770F881F991F661F0694A1F7EC
S11341E00590079428F4F80E491F561FC71FD11DC8
S11341F0880F991F661F771F0694A1F705900794EF
S113420020F4490F561FC71FD81F990F661F771F29
S1134210881F0694A9F784911095177041F0D695DC
S1134220C79557954795F794E7941A95C1F7EEE229
S1134230F3E06894159015913591659195910590E9
S11342407FE27395E118F10A430B560BC90BD009B1
S1134250C0F7E10CF11E431F561FC91FD01D7EF489
S1134260703311F48A95E6CFE894015030F0080FCA
S11342700AF40027021708F4202F2395022F7A331B
S113428028F079E37D932A95E9F710C07D932A9568
S113429089F6069497956795379517951794E118BD
S11342A0F10A430B560BC90BD00998F023957E9164
S11342B073957A3308F070E37C932013B8F77E91FA
S11342C070617D9330F0839571E37D9370E32A955B
S11342D0E1F71124EF90FF900F911F91CF91DF919F
S11342E0992787FD90950895FC01059061507040D1
S11342F00110D8F7809590958E0F9F1F0895FB01AC
S1134300DC0101900D920020E1F70895FC01615059
S1134310704001900110D8F7809590958E0F9F1FE3
S113432008954532510518F4423008F004C0FB01E9
S11343301082CB010895BB274A3031F4992322F42B
S1134340BDE2909581959F4F01C0BB27FB01552786
S1134350AA27880F991FAA1FA41710F0A41B8395DE
S11343605051B9F7A05DAA3308F0A95DA193009755
S113437079F7B111B1931192CB01E2C00F931F935E
S1134380CF93DF93FB01238121FD03C08FEF9FEFC8
S11343902CC022FF16C046815781248135814217E3
S11343A0530744F4A081B1819D012F5F3F4F3183B6
S11343B020838C93268137812F5F3F4F3783268359
S11343C014C08B01EC01FB010084F185E02D1995EB
S11343D0892BE1F6D80116968D919C911797019639
S11343E017969C938E931697CE01DF91CF911F91D0
S11343F00F910895CF93DF93CDB7DEB7AE014A5F37
S11344005F4FFA0161917191AF018091D40D909148
S1134410D50D8DDADF91CF9108956091D40D70910F
S1134420D50DACCF0F931F93CF93DF93E091D40DB1
S1134430F091D50D238121FF1BC08C01D0E0C0E099
S1134440F80181918F016091D40D7091D50DDB013C
S11344501896ED91FC911997882331F01995892BC1
S113446079F3DFEFCFEFECCF8AE01995892B19F0C0
S11344708FEF9FEF02C08D2F9C2FDF91CF911F9163
S11344800F910895FA01AA27283051F1203181F1C2
S1134490E8946F936E7F6E5F7F4F8F4F9F4FAF4F48
S11344A0B1E03ED0B4E03CD0670F781F891F9A1F5B
S11344B0A11D680F791F8A1F911DA11D6A0F711D0F
S11344C0811D911DA11D20D009F468943F912AE01B
S11344D0269F11243019305D3193DEF6CF01089503
S11344E0462F4770405D4193B3E00FD0C9F7F6CF34
S11344F0462F4F70405D4A3318F0495D31FD4052FC
S1134500419302D0A9F7EACFB4E0A6959795879591
S113451077956795BA95C9F7009761057105089570
S11345209B01AC010A2E069457954795379527951C
S1134530BA95C9F7620F731F841F951FA01D0895B4
S1134540DC01FC01672F71917723E1F7329704C0F6
S11345507C916D9370836291AE17BF07C8F3089581
S1074560F894FFCFF9
S1134564020100000002000000005A1500000000CF
S1134574008000800080FF7FFF7FFF7F00000580B4
S11345840F800A001B801E00140011803380360043
S11345943C00398028002D80278022006380660037
S11345A46C00698078007D807780720050005580AB
S11345B45F805A004B804E0044004180C380C60093
S11345C4CC00C980D800DD80D780D200F000F5800B
S11345D4FF80FA00EB80EE00E400E180A000A580F7
S11345E4AF80AA00BB80BE00B400B1809380960063
S11345F49C00998088008D80878082008381860155
S11346048C01898198019D8197819201B001B581C2
S1134614BF81BA01AB81AE01A401A181E001E581AE
S1134624EF81EA01FB81FE01F401F181D381D6011A
S1134634DC01D981C801CD81C781C2014001458112
S11346444F814A015B815E0154015181738176017A
S11346547C01798168016D8167816201238126016E
S11346642C01298138013D813781320110011581E2
S11346741F811A010B810E010401018103830603C6
S11346840C03098318031D83178312033003358332
S11346943F833A032B832E0324032183600365831E
S11346A46F836A037B837E0374037183538356038A
S11346B45C03598348034D8347834203C003C58382
S11346C4CF83CA03DB83DE03D403D183F383F603EA
S11346D4FC03F983E803ED83E783E203A383A603DE
S11346E4AC03A983B803BD83B783B2039003958352
S11346F49F839A038B838E03840381838002858240
S11347048F828A029B829E0294029182B382B602B1
S1134714BC02B982A802AD82A782A202E382E602A5
S1134724EC02E982F802FD82F782F202D002D58219
S1134734DF82DA02CB82CE02C402C1824382460201
S11347444C02498258025D82578252027002758279
S11347547F827A026B826E02640261822002258265
S11347642F822A023B823E023402318213821602D1
S11347741C02198208020D82078202024750532048
S11347845061636B6574204572726F72005761697E
S11347947420475053206E6F7420666F756E6400E6
S11347A425640A00426567696E206F66207265613C
S11347B464427974657328290A0D0041646472653E
S11347C473732069732025780A0D0053756241645C
S11347D4647265737320746F2073656E64206973E7
S11347E42025780A0D0053656E6420737562416454
S11347F4647265737320257820746F206164647215
S11348046573732025780A0D0073756241646472BC
S1134814657373207761732073656E6420726563B6
S113482465697665642061204E41434B210A0D007D
S11348344552524F5221205374617475732D436F42
S113484464653A202578210A0D0057686F6F7073E8
S11348546965207265616420307825782042797412
S1134864657320696E7374656164206F66203078A3
S1134874257820427974652E2E2E0A0D00456E6427
S1134884206F662072656164427974657328290A0D
S11348940D00426567696E206F662072656164422B
S11348A479746528290A0D004D61672043616C6998
S11348B462726174696F6E3A20576176652064652B
S11348C47669636520696E2061206669677572651F
S11348D420656967687420756E74696C20646F6EF2
S11348E46521004D61672043616C6962726174697A
S11348F46F6E20646F6E6521004D5055393235302A
S11349040A0D00392D444F462031362D6269740A4C
S11349140D006D6F74696F6E2073656E736F720A28
S11349240D003630207567204C53420A0D004D505B
S113493455393235300A0D204920414D202578203F
S1134944492073686F756C64206265203078373150
S11349540A0D004D505539323530206973206F6E7D
S11349646C696E652E2E2E0A0D00782D617869739C
S11349742073656C6620746573743A20616363659F
S11349846C65726174696F6E207472696D207769E5
S11349947468696E203A2025662025206F66206697
S11349A46163746F72792076616C75650A0D0079A0
S11349B42D617869732073656C6620746573743A29
S11349C420616363656C65726174696F6E207472CF
S11349D4696D2077697468696E203A2025662025FC
S11349E4206F6620666163746F72792076616C75DA
S11349F4650A0D007A2D617869732073656C6620ED
S1134A04746573743A20616363656C657261746977
S1134A146F6E207472696D2077697468696E203AC8
S1134A242025662025206F6620666163746F727981
S1134A342076616C75650A0D00782D6178697320A0
S1134A4473656C6620746573743A20677972617453
S1134A54696F6E207472696D2077697468696E2059
S1134A643A2025662025206F6620666163746F7280
S1134A74792076616C75650A0D00792D6178697306
S1134A842073656C6620746573743A206779726167
S1134A9474696F6E207472696D2077697468696EC5
S1134AA4203A2025662025206F6620666163746F92
S1134AB472792076616C75650A0D007A2D617869C6
S1134AC4732073656C6620746573743A2067797215
S1134AD46174696F6E207472696D20776974686992
S1134AE46E203A2025662025206F66206661637453
S1134AF46F72792076616C75650A0D004D505539D5
S1134B0432353020626961730A0D00207820202038
S1134B14792020207A0A0D00256420256420256448
S1134B24206D670A0D00256620256620256620C2AF
S1134B34B00A0D004D50553932353020696E697410
S1134B4469616C697A656420666F72206163746953
S1134B5476652064617461206D6F64652E2E2E2E3B
S1134B640A0D0050696E4346473A202578203D20BB
S1134B7430783232204D61737465724469736162B2
S1134B846C65202578203D203078303020496E74BF
S1134B9465727275707473202578203D20307830E6
S1134BA4312057686F616D69202578203D20307865
S1134BB437310A0D00414B3839363320696E697434
S1134BC469616C697A656420666F722061637469D3
S1134BD476652064617461206D6F64652E2E2E2EBB
S1134BE40A0D00415341582025660A004153415996
S1134BF42025660A004153415A2025660A00436F62
S1134C04756C64206E6F7420636F6E6E65637420BC
S1134C14746F20414B383936333A20307825780A7A
S1134C240D00436F756C64206E6F7420636F6E6E39
S1134C3465637420746F204D5055393235303A20F1
S1134C44307825780A0D00496E697420646F6E65A6
S1134C54210A0D00414B383936330A0D4920414DA0
S1134C6420257820492073686F756C642062652060
S1134C74307834380A0D00666C616700444154414D
S1114C84205061636B6574204572726F72007C
S9030000FC
